{
  "contractName": "Escapable",
  "abi": [
    {
      "inputs": [
        {
          "internalType": "address",
          "name": "_escapeHatchCaller",
          "type": "address"
        },
        {
          "internalType": "address",
          "name": "_escapeHatchDestination",
          "type": "address"
        }
      ],
      "stateMutability": "nonpayable",
      "type": "constructor"
    },
    {
      "anonymous": false,
      "inputs": [
        {
          "indexed": false,
          "internalType": "uint256",
          "name": "amount",
          "type": "uint256"
        }
      ],
      "name": "EscapeHatchCalled",
      "type": "event"
    },
    {
      "anonymous": false,
      "inputs": [
        {
          "indexed": true,
          "internalType": "address",
          "name": "previousOwner",
          "type": "address"
        },
        {
          "indexed": true,
          "internalType": "address",
          "name": "newOwner",
          "type": "address"
        }
      ],
      "name": "OwnershipTransferred",
      "type": "event"
    },
    {
      "inputs": [],
      "name": "escapeHatchCaller",
      "outputs": [
        {
          "internalType": "address",
          "name": "",
          "type": "address"
        }
      ],
      "stateMutability": "view",
      "type": "function"
    },
    {
      "inputs": [],
      "name": "escapeHatchDestination",
      "outputs": [
        {
          "internalType": "address payable",
          "name": "",
          "type": "address"
        }
      ],
      "stateMutability": "view",
      "type": "function"
    },
    {
      "inputs": [],
      "name": "owner",
      "outputs": [
        {
          "internalType": "address",
          "name": "",
          "type": "address"
        }
      ],
      "stateMutability": "view",
      "type": "function"
    },
    {
      "inputs": [],
      "name": "renounceOwnership",
      "outputs": [],
      "stateMutability": "nonpayable",
      "type": "function"
    },
    {
      "inputs": [
        {
          "internalType": "address",
          "name": "newOwner",
          "type": "address"
        }
      ],
      "name": "transferOwnership",
      "outputs": [],
      "stateMutability": "nonpayable",
      "type": "function"
    },
    {
      "inputs": [
        {
          "internalType": "address",
          "name": "_newEscapeHatchCaller",
          "type": "address"
        }
      ],
      "name": "changeEscapeCaller",
      "outputs": [],
      "stateMutability": "nonpayable",
      "type": "function"
    },
    {
      "inputs": [],
      "name": "escapeHatch",
      "outputs": [],
      "stateMutability": "nonpayable",
      "type": "function"
    }
  ],
  "bytecode": "0x608060405234801561001057600080fd5b506040516105a93803806105a983398101604081905261002f916100d9565b6100383361006d565b60018055600280546001600160a01b039384166001600160a01b0319918216179091556003805492909316911617905561010c565b600080546001600160a01b038381166001600160a01b0319831681178455604051919092169283917f8be0079c531659141344cd1fd0a4f28419497f9722a3daafe3b4186f6b6457e09190a35050565b80516001600160a01b03811681146100d457600080fd5b919050565b600080604083850312156100ec57600080fd5b6100f5836100bd565b9150610103602084016100bd565b90509250929050565b61048e8061011b6000396000f3fe608060405234801561001057600080fd5b506004361061007d5760003560e01c8063715018a61161005b578063715018a6146100ce5780638da5cb5b146100d6578063f2fde38b146100e7578063f5b61230146100fa57600080fd5b80631554611f146100825780631f6eb6e71461008c578063681617c7146100bb575b600080fd5b61008a61010d565b005b60025461009f906001600160a01b031681565b6040516001600160a01b03909116815260200160405180910390f35b61008a6100c93660046103cb565b61022a565b61008a610294565b6000546001600160a01b031661009f565b61008a6100f53660046103cb565b6102a8565b60035461009f906001600160a01b031681565b6000546001600160a01b031633148061013957506002546001600160a01b0316336001600160a01b0316145b61015e5760405162461bcd60e51b8152600401610155906103fb565b60405180910390fd5b6002600154036101b05760405162461bcd60e51b815260206004820152601f60248201527f5265656e7472616e637947756172643a207265656e7472616e742063616c6c006044820152606401610155565b600260015560035460405147916001600160a01b03169082156108fc029083906000818181858888f193505050501580156101ef573d6000803e3d6000fd5b506040518181527f3a7a1ba90aaa86fa9f6b921c3d600a5c870f8ebd05e7fbd30f93930f3caa5db59060200160405180910390a15060018055565b6000546001600160a01b031633148061025657506002546001600160a01b0316336001600160a01b0316145b6102725760405162461bcd60e51b8152600401610155906103fb565b600280546001600160a01b0319166001600160a01b0392909216919091179055565b61029c610321565b6102a6600061037b565b565b6102b0610321565b6001600160a01b0381166103155760405162461bcd60e51b815260206004820152602660248201527f4f776e61626c653a206e6577206f776e657220697320746865207a65726f206160448201526564647265737360d01b6064820152608401610155565b61031e8161037b565b50565b6000546001600160a01b031633146102a65760405162461bcd60e51b815260206004820181905260248201527f4f776e61626c653a2063616c6c6572206973206e6f7420746865206f776e65726044820152606401610155565b600080546001600160a01b038381166001600160a01b0319831681178455604051919092169283917f8be0079c531659141344cd1fd0a4f28419497f9722a3daafe3b4186f6b6457e09190a35050565b6000602082840312156103dd57600080fd5b81356001600160a01b03811681146103f457600080fd5b9392505050565b60208082526037908201527f457363617061626c653a2063616c6c6572206973206e6f7420746865206f776e60408201527f6572206f7220657363617065486174636843616c6c657200000000000000000060608201526080019056fea26469706673582212204bb561e0ed4c41485c96a8c7fbe2bf44c30f5ffedb48f0d8e21be1af3e4f0fc064736f6c63430008100033",
  "immutableReferences": {},
  "source": "// SPDX-License-Identifier: MIT\r\npragma solidity ^0.8.0;\r\n\r\n/// @notice libraries\r\n\r\nimport \"@openzeppelin/contracts/access/Ownable.sol\";\r\nimport \"@openzeppelin/contracts/security/ReentrancyGuard.sol\";\r\n\r\n/**\r\n * @title Escapable\r\n * @author Ghadi Mhawej\r\n **/\r\n\r\ncontract Escapable is Ownable, ReentrancyGuard {\r\n    address public escapeHatchCaller;\r\n    address payable public escapeHatchDestination;\r\n\r\n    /// @notice EscapeHatch event definition\r\n    event EscapeHatchCalled(uint256 amount);\r\n\r\n    /// @dev The addresses preassigned to the `escapeHatchCaller` role or the owner are the only addresses that can call a function with this modifier\r\n    modifier onlyEscapeHatchCallerOrOwner() {\r\n        require(\r\n            _msgSender() == owner() || _msgSender() == escapeHatchCaller,\r\n            \"Escapable: caller is not the owner or escapeHatchCaller\"\r\n        );\r\n        _;\r\n    }\r\n\r\n    /// @notice The Constructor assigns the `escapeHatchDestination` and the `escapeHatchCaller`\r\n    /// @param _escapeHatchDestination The address of a safe location to send the ether held in this contract to\r\n    /// @param _escapeHatchCaller The address of a trusted account or contract to send the ether in this contract\r\n    constructor(address _escapeHatchCaller, address _escapeHatchDestination) {\r\n        escapeHatchCaller = _escapeHatchCaller;\r\n        escapeHatchDestination = payable(_escapeHatchDestination);\r\n    }\r\n\r\n    /// @notice Changes the address assigned to call `escapeHatch()`\r\n    /// @param _newEscapeHatchCaller New address to be assigned to escapeHatchCaller\r\n    function changeEscapeCaller(address _newEscapeHatchCaller)\r\n        external\r\n        onlyEscapeHatchCallerOrOwner\r\n    {\r\n        escapeHatchCaller = _newEscapeHatchCaller;\r\n    }\r\n\r\n    /// @notice Sends all of the eth contained in the contract to the escapeHatchDestination\r\n    /// @notice should only be called as last resort\r\n    function escapeHatch() external onlyEscapeHatchCallerOrOwner nonReentrant {\r\n        uint256 total = address(this).balance;\r\n\r\n        escapeHatchDestination.transfer(total);\r\n        emit EscapeHatchCalled(total);\r\n    }\r\n}\r\n",
  "sourcePath": "C:\\Users\\Ghadi\\Desktop\\Portfolio\\Vault\\contracts\\Escapable.sol",
  "compiler": {
    "name": "solc",
    "version": "0.8.16+commit.07a7930e.Emscripten.clang"
  },
  "schemaVersion": "3.4.4",
  "updatedAt": "2022-09-03T14:31:01.674Z",
  "devdoc": {
    "author": "Ghadi Mhawej*",
    "kind": "dev",
    "methods": {
      "changeEscapeCaller(address)": {
        "params": {
          "_newEscapeHatchCaller": "New address to be assigned to escapeHatchCaller"
        }
      },
      "constructor": {
        "params": {
          "_escapeHatchCaller": "The address of a trusted account or contract to send the ether in this contract",
          "_escapeHatchDestination": "The address of a safe location to send the ether held in this contract to"
        }
      },
      "owner()": {
        "details": "Returns the address of the current owner."
      },
      "renounceOwnership()": {
        "details": "Leaves the contract without owner. It will not be possible to call `onlyOwner` functions anymore. Can only be called by the current owner. NOTE: Renouncing ownership will leave the contract without an owner, thereby removing any functionality that is only available to the owner."
      },
      "transferOwnership(address)": {
        "details": "Transfers ownership of the contract to a new account (`newOwner`). Can only be called by the current owner."
      }
    },
    "title": "Escapable",
    "version": 1
  },
  "userdoc": {
    "events": {
      "EscapeHatchCalled(uint256)": {
        "notice": "EscapeHatch event definition"
      }
    },
    "kind": "user",
    "methods": {
      "changeEscapeCaller(address)": {
        "notice": "Changes the address assigned to call `escapeHatch()`"
      },
      "constructor": {
        "notice": "The Constructor assigns the `escapeHatchDestination` and the `escapeHatchCaller`"
      },
      "escapeHatch()": {
        "notice": "Sends all of the eth contained in the contract to the escapeHatchDestinationshould only be called as last resort"
      }
    },
    "version": 1
  }
}