{
  "contractName": "Vault",
  "abi": [
    {
      "inputs": [
        {
          "internalType": "address",
          "name": "_escapeHatchCaller",
          "type": "address"
        },
        {
          "internalType": "address payable",
          "name": "_escapeHatchDestination",
          "type": "address"
        },
        {
          "internalType": "uint256",
          "name": "_absoluteMinTimeLock",
          "type": "uint256"
        },
        {
          "internalType": "uint256",
          "name": "_timeLock",
          "type": "uint256"
        },
        {
          "internalType": "address",
          "name": "_securityGuard",
          "type": "address"
        },
        {
          "internalType": "uint256",
          "name": "_maxSecurityGuardDelay",
          "type": "uint256"
        }
      ],
      "stateMutability": "nonpayable",
      "type": "constructor"
    },
    {
      "anonymous": false,
      "inputs": [
        {
          "indexed": false,
          "internalType": "uint256",
          "name": "amount",
          "type": "uint256"
        }
      ],
      "name": "EscapeHatchCalled",
      "type": "event"
    },
    {
      "anonymous": false,
      "inputs": [
        {
          "indexed": true,
          "internalType": "address",
          "name": "from",
          "type": "address"
        },
        {
          "indexed": false,
          "internalType": "uint256",
          "name": "amount",
          "type": "uint256"
        }
      ],
      "name": "EtherReceived",
      "type": "event"
    },
    {
      "anonymous": false,
      "inputs": [
        {
          "indexed": true,
          "internalType": "address",
          "name": "previousOwner",
          "type": "address"
        },
        {
          "indexed": true,
          "internalType": "address",
          "name": "newOwner",
          "type": "address"
        }
      ],
      "name": "OwnershipTransferred",
      "type": "event"
    },
    {
      "anonymous": false,
      "inputs": [
        {
          "indexed": true,
          "internalType": "uint256",
          "name": "idPayment",
          "type": "uint256"
        },
        {
          "indexed": true,
          "internalType": "address",
          "name": "recipient",
          "type": "address"
        },
        {
          "indexed": false,
          "internalType": "uint256",
          "name": "amount",
          "type": "uint256"
        }
      ],
      "name": "PaymentAuthorized",
      "type": "event"
    },
    {
      "anonymous": false,
      "inputs": [
        {
          "indexed": true,
          "internalType": "uint256",
          "name": "idPayment",
          "type": "uint256"
        }
      ],
      "name": "PaymentCanceled",
      "type": "event"
    },
    {
      "anonymous": false,
      "inputs": [
        {
          "indexed": true,
          "internalType": "uint256",
          "name": "idPayment",
          "type": "uint256"
        },
        {
          "indexed": true,
          "internalType": "address",
          "name": "recipient",
          "type": "address"
        },
        {
          "indexed": false,
          "internalType": "uint256",
          "name": "amount",
          "type": "uint256"
        }
      ],
      "name": "PaymentExecuted",
      "type": "event"
    },
    {
      "anonymous": false,
      "inputs": [
        {
          "indexed": true,
          "internalType": "address",
          "name": "spender",
          "type": "address"
        },
        {
          "indexed": false,
          "internalType": "bool",
          "name": "authorized",
          "type": "bool"
        }
      ],
      "name": "SpenderAuthorization",
      "type": "event"
    },
    {
      "inputs": [],
      "name": "absoluteMinTimeLock",
      "outputs": [
        {
          "internalType": "uint256",
          "name": "",
          "type": "uint256"
        }
      ],
      "stateMutability": "view",
      "type": "function",
      "constant": true
    },
    {
      "inputs": [
        {
          "internalType": "address",
          "name": "",
          "type": "address"
        }
      ],
      "name": "allowedSpenders",
      "outputs": [
        {
          "internalType": "bool",
          "name": "",
          "type": "bool"
        }
      ],
      "stateMutability": "view",
      "type": "function",
      "constant": true
    },
    {
      "inputs": [
        {
          "internalType": "uint256",
          "name": "",
          "type": "uint256"
        }
      ],
      "name": "authorizedPayments",
      "outputs": [
        {
          "internalType": "string",
          "name": "name",
          "type": "string"
        },
        {
          "internalType": "bytes32",
          "name": "ref",
          "type": "bytes32"
        },
        {
          "internalType": "address",
          "name": "spender",
          "type": "address"
        },
        {
          "internalType": "uint256",
          "name": "earliestPayTime",
          "type": "uint256"
        },
        {
          "internalType": "bool",
          "name": "canceled",
          "type": "bool"
        },
        {
          "internalType": "bool",
          "name": "paid",
          "type": "bool"
        },
        {
          "internalType": "address payable",
          "name": "recipient",
          "type": "address"
        },
        {
          "internalType": "uint256",
          "name": "amount",
          "type": "uint256"
        },
        {
          "internalType": "uint256",
          "name": "securityGuardDelay",
          "type": "uint256"
        }
      ],
      "stateMutability": "view",
      "type": "function",
      "constant": true
    },
    {
      "inputs": [
        {
          "internalType": "address",
          "name": "_newEscapeHatchCaller",
          "type": "address"
        }
      ],
      "name": "changeEscapeCaller",
      "outputs": [],
      "stateMutability": "nonpayable",
      "type": "function"
    },
    {
      "inputs": [],
      "name": "escapeHatch",
      "outputs": [],
      "stateMutability": "nonpayable",
      "type": "function"
    },
    {
      "inputs": [],
      "name": "escapeHatchCaller",
      "outputs": [
        {
          "internalType": "address",
          "name": "",
          "type": "address"
        }
      ],
      "stateMutability": "view",
      "type": "function",
      "constant": true
    },
    {
      "inputs": [],
      "name": "escapeHatchDestination",
      "outputs": [
        {
          "internalType": "address payable",
          "name": "",
          "type": "address"
        }
      ],
      "stateMutability": "view",
      "type": "function",
      "constant": true
    },
    {
      "inputs": [],
      "name": "maxSecurityGuardDelay",
      "outputs": [
        {
          "internalType": "uint256",
          "name": "",
          "type": "uint256"
        }
      ],
      "stateMutability": "view",
      "type": "function",
      "constant": true
    },
    {
      "inputs": [],
      "name": "owner",
      "outputs": [
        {
          "internalType": "address",
          "name": "",
          "type": "address"
        }
      ],
      "stateMutability": "view",
      "type": "function",
      "constant": true
    },
    {
      "inputs": [],
      "name": "renounceOwnership",
      "outputs": [],
      "stateMutability": "nonpayable",
      "type": "function"
    },
    {
      "inputs": [],
      "name": "securityGuard",
      "outputs": [
        {
          "internalType": "address",
          "name": "",
          "type": "address"
        }
      ],
      "stateMutability": "view",
      "type": "function",
      "constant": true
    },
    {
      "inputs": [],
      "name": "timeLock",
      "outputs": [
        {
          "internalType": "uint256",
          "name": "",
          "type": "uint256"
        }
      ],
      "stateMutability": "view",
      "type": "function",
      "constant": true
    },
    {
      "inputs": [
        {
          "internalType": "address",
          "name": "newOwner",
          "type": "address"
        }
      ],
      "name": "transferOwnership",
      "outputs": [],
      "stateMutability": "nonpayable",
      "type": "function"
    },
    {
      "stateMutability": "payable",
      "type": "receive",
      "payable": true
    },
    {
      "inputs": [],
      "name": "numberOfAuthorizedPayments",
      "outputs": [
        {
          "internalType": "uint256",
          "name": "",
          "type": "uint256"
        }
      ],
      "stateMutability": "view",
      "type": "function",
      "constant": true
    },
    {
      "inputs": [
        {
          "internalType": "string",
          "name": "_name",
          "type": "string"
        },
        {
          "internalType": "bytes32",
          "name": "_reference",
          "type": "bytes32"
        },
        {
          "internalType": "address payable",
          "name": "_recipient",
          "type": "address"
        },
        {
          "internalType": "uint256",
          "name": "_amount",
          "type": "uint256"
        },
        {
          "internalType": "uint256",
          "name": "_paymentDelay",
          "type": "uint256"
        }
      ],
      "name": "authorizePayment",
      "outputs": [
        {
          "internalType": "uint256",
          "name": "",
          "type": "uint256"
        }
      ],
      "stateMutability": "nonpayable",
      "type": "function"
    },
    {
      "inputs": [
        {
          "internalType": "uint256",
          "name": "_idPayment",
          "type": "uint256"
        }
      ],
      "name": "collectAuthorizedPayment",
      "outputs": [],
      "stateMutability": "nonpayable",
      "type": "function"
    },
    {
      "inputs": [
        {
          "internalType": "uint256",
          "name": "_idPayment",
          "type": "uint256"
        },
        {
          "internalType": "uint256",
          "name": "_delay",
          "type": "uint256"
        }
      ],
      "name": "delayPayment",
      "outputs": [],
      "stateMutability": "nonpayable",
      "type": "function"
    },
    {
      "inputs": [
        {
          "internalType": "uint256",
          "name": "_idPayment",
          "type": "uint256"
        }
      ],
      "name": "cancelPayment",
      "outputs": [],
      "stateMutability": "nonpayable",
      "type": "function"
    },
    {
      "inputs": [
        {
          "internalType": "address",
          "name": "_spender",
          "type": "address"
        }
      ],
      "name": "authorizeSpender",
      "outputs": [],
      "stateMutability": "nonpayable",
      "type": "function"
    },
    {
      "inputs": [
        {
          "internalType": "address",
          "name": "_spender",
          "type": "address"
        }
      ],
      "name": "removeSpender",
      "outputs": [],
      "stateMutability": "nonpayable",
      "type": "function"
    },
    {
      "inputs": [
        {
          "internalType": "address",
          "name": "_newSecurityGuard",
          "type": "address"
        }
      ],
      "name": "setSecurityGuard",
      "outputs": [],
      "stateMutability": "nonpayable",
      "type": "function"
    },
    {
      "inputs": [
        {
          "internalType": "uint256",
          "name": "_newTimeLock",
          "type": "uint256"
        }
      ],
      "name": "setTimelock",
      "outputs": [],
      "stateMutability": "nonpayable",
      "type": "function"
    },
    {
      "inputs": [
        {
          "internalType": "uint256",
          "name": "_maxSecurityGuardDelay",
          "type": "uint256"
        }
      ],
      "name": "setMaxSecurityGuardDelay",
      "outputs": [],
      "stateMutability": "nonpayable",
      "type": "function"
    }
  ],
  "bytecode": "0x60806040523480156200001157600080fd5b5060405162001b5738038062001b57833981016040819052620000349162000104565b858562000041336200009b565b60018055600280546001600160a01b03199081166001600160a01b03948516179091556003805482169284169290921790915560069590955560079390935560058054909416919092161790915560085550620001759050565b600080546001600160a01b038381166001600160a01b0319831681178455604051919092169283917f8be0079c531659141344cd1fd0a4f28419497f9722a3daafe3b4186f6b6457e09190a35050565b6001600160a01b03811681146200010157600080fd5b50565b60008060008060008060c087890312156200011e57600080fd5b86516200012b81620000eb565b60208801519096506200013e81620000eb565b80955050604087015193506060870151925060808701516200016081620000eb565b8092505060a087015190509295509295509295565b6119d280620001856000396000f3fe6080604052600436106101445760003560e01c80638ce5877c116100b6578063d085835a1161006f578063d085835a146103ba578063d8528af0146103d0578063da4793ac14610410578063ea8a66c714610430578063f2fde38b14610446578063f5b612301461046657600080fd5b80638ce5877c146102e75780638da5cb5b1461030757806392e4b8a414610325578063a0927a6a14610345578063b2ca3ec41461037a578063bb2a51d11461039a57600080fd5b80632b353fbe116101085780632b353fbe1461023d578063681617c71461025d57806368b8c5a11461027d578063715018a6146102925780638422927d146102a7578063846a5dde146102c757600080fd5b80630b2e7423146101855780631554611f146101ae5780631e891c0a146101c55780631f6eb6e7146101e557806320ea25331461021d57600080fd5b366101805760405134815233907f1e57e3bb474320be3d2c77138f75b7c3941292d647f5f9634e33a8e94e0e069b9060200160405180910390a2005b600080fd5b34801561019157600080fd5b5061019b60085481565b6040519081526020015b60405180910390f35b3480156101ba57600080fd5b506101c3610486565b005b3480156101d157600080fd5b506101c36101e03660046114ab565b6105a3565b3480156101f157600080fd5b50600254610205906001600160a01b031681565b6040516001600160a01b0390911681526020016101a5565b34801561022957600080fd5b5061019b6102383660046114ff565b610627565b34801561024957600080fd5b506101c36102583660046115dc565b610976565b34801561026957600080fd5b506101c36102783660046115dc565b6109dc565b34801561028957600080fd5b5060045461019b565b34801561029e57600080fd5b506101c3610a46565b3480156102b357600080fd5b506101c36102c23660046114ab565b610a5a565b3480156102d357600080fd5b506101c36102e2366004611600565b610b7d565b3480156102f357600080fd5b506101c36103023660046115dc565b610dca565b34801561031357600080fd5b506000546001600160a01b0316610205565b34801561033157600080fd5b506101c36103403660046114ab565b610e21565b34801561035157600080fd5b506103656103603660046114ab565b611254565b6040516101a599989796959493929190611622565b34801561038657600080fd5b50600554610205906001600160a01b031681565b3480156103a657600080fd5b506101c36103b53660046115dc565b611351565b3480156103c657600080fd5b5061019b60075481565b3480156103dc57600080fd5b506104006103eb3660046115dc565b60096020526000908152604090205460ff1681565b60405190151581526020016101a5565b34801561041c57600080fd5b506101c361042b3660046114ab565b61137b565b34801561043c57600080fd5b5061019b60065481565b34801561045257600080fd5b506101c36104613660046115dc565b611388565b34801561047257600080fd5b50600354610205906001600160a01b031681565b6000546001600160a01b03163314806104b257506002546001600160a01b0316336001600160a01b0316145b6104d75760405162461bcd60e51b81526004016104ce906116d3565b60405180910390fd5b6002600154036105295760405162461bcd60e51b815260206004820152601f60248201527f5265656e7472616e637947756172643a207265656e7472616e742063616c6c0060448201526064016104ce565b600260015560035460405147916001600160a01b03169082156108fc029083906000818181858888f19350505050158015610568573d6000803e3d6000fd5b506040518181527f3a7a1ba90aaa86fa9f6b921c3d600a5c870f8ebd05e7fbd30f93930f3caa5db59060200160405180910390a15060018055565b6105ab611401565b60065481116106225760405162461bcd60e51b815260206004820152603d60248201527f5661756c743a205f6e657754696d654c6f636b2073686f756c6420626520686960448201527f67686572207468616e206162736f6c7574654d696e54696d654c6f636b00000060648201526084016104ce565b600755565b3360009081526009602052604081205460ff1661069a5760405162461bcd60e51b815260206004820152602b60248201527f5661756c743a207468652063616c6c6572206973206e6f7420616e20616c6c6f60448201526a3bb2b21039b832b73232b960a91b60648201526084016104ce565b670de0b6b3a764000082106106c15760405162461bcd60e51b81526004016104ce90611730565b6004805490600090826106d2611771565b9060005260206000209060070201604051806101200160405290816000820180546106fc90611787565b80601f016020809104026020016040519081016040528092919081815260200182805461072890611787565b80156107755780601f1061074a57610100808354040283529160200191610775565b820191906000526020600020905b81548152906001019060200180831161075857829003601f168201915b50505091835250506001820154602082015260028201546001600160a01b03908116604083015260038301546060830152600483015460ff80821615156080850152610100808304909116151560a08501526201000090910490911660c0830152600583015460e08301526006909201549101529050336001600160a01b031660408201526007548410156108165760075461081190426117c1565b610820565b61082084426117c1565b60608201526001600160a01b03861660c082015260e081018590528781526020810187905260048054600181018255600091909152815182916007027f8a35acfbc15ff81a39ae7d344fd709f28e8600b4aa8c65c6b64bfe7fe36bd19b0190819061088b9082611837565b5060208281015160018301556040808401516002840180546001600160a01b0319166001600160a01b0392831617905560608501516003850155608085015160048501805460a088015160c0808a015161ffff1990931694151561ff0019169490941761010091151582021762010000600160b01b03191662010000928616929092029190911790915560e080880151600588015596015160069095019490945592850151938501519051908152929091169184917f47e9633c99dd05fabd1b937e7c85f9e00d6866bfd2e5885e0091f40a173be3d3910160405180910390a3509695505050505050565b61097e611401565b6001600160a01b038116600081815260096020908152604091829020805460ff1916600190811790915591519182527f801f568efbc3346a6ae3d0c3eb335a30d64e0d3cf08f1c39626d62cd5c82728191015b60405180910390a250565b6000546001600160a01b0316331480610a0857506002546001600160a01b0316336001600160a01b0316145b610a245760405162461bcd60e51b81526004016104ce906116d3565b600280546001600160a01b0319166001600160a01b0392909216919091179055565b610a4e611401565b610a58600061145b565b565b610a62611401565b600454811115610a845760405162461bcd60e51b81526004016104ce906118f7565b60048181548110610a9757610a97611771565b600091825260209091206004600790920201015460ff1615610acb5760405162461bcd60e51b81526004016104ce9061192e565b60048181548110610ade57610ade611771565b906000526020600020906007020160040160019054906101000a900460ff1615610b1a5760405162461bcd60e51b81526004016104ce90611965565b600160048281548110610b2f57610b2f611771565b60009182526020822060079190910201600401805460ff19169215159290921790915560405182917ffdf197ed54809861dafe0b4d391843652730ac67274c1e9e46db7687dccaa30191a250565b6005546001600160a01b0316336001600160a01b031614610bf35760405162461bcd60e51b815260206004820152602a60248201527f5661756c743a207468652063616c6c6572206973206e6f7420746865207365636044820152691d5c9a5d1e51dd585c9960b21b60648201526084016104ce565b600454821115610c155760405162461bcd60e51b81526004016104ce906118f7565b670de0b6b3a76400008110610c3c5760405162461bcd60e51b81526004016104ce90611730565b60048281548110610c4f57610c4f611771565b600091825260209091206004600790920201015460ff1615610c835760405162461bcd60e51b81526004016104ce9061192e565b60048281548110610c9657610c96611771565b906000526020600020906007020160040160019054906101000a900460ff1615610cd25760405162461bcd60e51b81526004016104ce90611965565b6008548160048481548110610ce957610ce9611771565b906000526020600020906007020160060154610d0591906117c1565b10610d525760405162461bcd60e51b815260206004820152601960248201527f5661756c743a2064656c61792074696d6520746f6f206269670000000000000060448201526064016104ce565b8060048381548110610d6657610d66611771565b90600052602060002090600702016006016000828254610d8691906117c1565b925050819055508060048381548110610da157610da1611771565b90600052602060002090600702016003016000828254610dc191906117c1565b90915550505050565b610dd2611401565b6001600160a01b0381166000818152600960209081526040808320805460ff19169055519182527f801f568efbc3346a6ae3d0c3eb335a30d64e0d3cf08f1c39626d62cd5c82728191016109d1565b600260015403610e735760405162461bcd60e51b815260206004820152601f60248201527f5265656e7472616e637947756172643a207265656e7472616e742063616c6c0060448201526064016104ce565b6002600155600454811115610e9a5760405162461bcd60e51b81526004016104ce906118f7565b600060048281548110610eaf57610eaf611771565b906000526020600020906007020160405180610120016040529081600082018054610ed990611787565b80601f0160208091040260200160405190810160405280929190818152602001828054610f0590611787565b8015610f525780601f10610f2757610100808354040283529160200191610f52565b820191906000526020600020905b815481529060010190602001808311610f3557829003601f168201915b50505091835250506001820154602082015260028201546001600160a01b03908116604083015260038301546060830152600483015460ff80821615156080850152610100808304909116151560a085015262010000909104821660c080850191909152600585015460e08501526006909401549201919091529082015191925016331461102d5760405162461bcd60e51b815260206004820152602260248201527f5661756c743a2063616c6c6572206973206e6f742074686520726563697069656044820152611b9d60f21b60648201526084016104ce565b6040808201516001600160a01b031660009081526009602052205460ff166110975760405162461bcd60e51b815260206004820181905260248201527f5661756c743a205370656e646572206973206e6f7420617574686f72697a656460448201526064016104ce565b806060015142116110ea5760405162461bcd60e51b815260206004820152601f60248201527f5661756c743a204e6f7420616c6c6f77656420746f207370656e64207965740060448201526064016104ce565b80608001511561110c5760405162461bcd60e51b81526004016104ce9061192e565b8060a001511561112e5760405162461bcd60e51b81526004016104ce90611965565b8060e0015147116111815760405162461bcd60e51b815260206004820152601960248201527f5661756c743a204e6f7420656e6f7567682062616c616e63650000000000000060448201526064016104ce565b60016004838154811061119657611196611771565b906000526020600020906007020160040160016101000a81548160ff0219169083151502179055508060c001516001600160a01b03166108fc8260e001519081150290604051600060405180830381858888f193505050501580156111ff573d6000803e3d6000fd5b508060c001516001600160a01b0316827f7f5bfe3018715b26a7067888a5c42912fbb3485170b8154ea9a448661f2f0de28360e0015160405161124491815260200190565b60405180910390a3505060018055565b6004818154811061126457600080fd5b906000526020600020906007020160009150905080600001805461128790611787565b80601f01602080910402602001604051908101604052809291908181526020018280546112b390611787565b80156113005780601f106112d557610100808354040283529160200191611300565b820191906000526020600020905b8154815290600101906020018083116112e357829003601f168201915b5050505060018301546002840154600385015460048601546005870154600690970154959693956001600160a01b039384169550919360ff8083169461010084049091169362010000909304169189565b611359611401565b600580546001600160a01b0319166001600160a01b0392909216919091179055565b611383611401565b600855565b611390611401565b6001600160a01b0381166113f55760405162461bcd60e51b815260206004820152602660248201527f4f776e61626c653a206e6577206f776e657220697320746865207a65726f206160448201526564647265737360d01b60648201526084016104ce565b6113fe8161145b565b50565b6000546001600160a01b03163314610a585760405162461bcd60e51b815260206004820181905260248201527f4f776e61626c653a2063616c6c6572206973206e6f7420746865206f776e657260448201526064016104ce565b600080546001600160a01b038381166001600160a01b0319831681178455604051919092169283917f8be0079c531659141344cd1fd0a4f28419497f9722a3daafe3b4186f6b6457e09190a35050565b6000602082840312156114bd57600080fd5b5035919050565b634e487b7160e01b600052604160045260246000fd5b6001600160a01b03811681146113fe57600080fd5b80356114fa816114da565b919050565b600080600080600060a0868803121561151757600080fd5b853567ffffffffffffffff8082111561152f57600080fd5b818801915088601f83011261154357600080fd5b813581811115611555576115556114c4565b604051601f8201601f19908116603f0116810190838211818310171561157d5761157d6114c4565b816040528281528b602084870101111561159657600080fd5b826020860160208301376000602084830101528099505050505050602086013593506115c4604087016114ef565b94979396509394606081013594506080013592915050565b6000602082840312156115ee57600080fd5b81356115f9816114da565b9392505050565b6000806040838503121561161357600080fd5b50508035926020909101359150565b60006101208083528b518082850152600091505b80821015611658576020828e0101516101408386010152602082019150611636565b6101409150600082828601015281601f19601f83011685010192505050896020830152611690604083018a6001600160a01b03169052565b8760608301526116a4608083018815159052565b85151560a08301526001600160a01b03851660c083015260e08201939093526101000152979650505050505050565b60208082526037908201527f457363617061626c653a2063616c6c6572206973206e6f7420746865206f776e60408201527f6572206f7220657363617065486174636843616c6c6572000000000000000000606082015260800190565b60208082526021908201527f5661756c743a207061796d656e7444656c6179206f766572666c6f77207269736040820152606b60f81b606082015260800190565b634e487b7160e01b600052603260045260246000fd5b600181811c9082168061179b57607f821691505b6020821081036117bb57634e487b7160e01b600052602260045260246000fd5b50919050565b808201808211156117e257634e487b7160e01b600052601160045260246000fd5b92915050565b601f82111561183257600081815260208120601f850160051c8101602086101561180f5750805b601f850160051c820191505b8181101561182e5782815560010161181b565b5050505b505050565b815167ffffffffffffffff811115611851576118516114c4565b6118658161185f8454611787565b846117e8565b602080601f83116001811461189a57600084156118825750858301515b600019600386901b1c1916600185901b17855561182e565b600085815260208120601f198616915b828110156118c9578886015182559484019460019091019084016118aa565b50858210156118e75787850151600019600388901b60f8161c191681555b5050505050600190811b01905550565b6020808252601c908201527f5661756c743a205061796d656e7420646f65736e277420657869737400000000604082015260600190565b6020808252601c908201527f5661756c743a205061796d656e74207761732063616e63656c6c656400000000604082015260600190565b6020808252601b908201527f5661756c743a205061796d656e7420616c72656164792070616964000000000060408201526060019056fea2646970667358221220898a57352a48b17c9dfd4df861dacef2c334588ba76292b1a8c75539748ce93064736f6c63430008100033",
  "immutableReferences": {},
  "source": "// SPDX-License-Identifier: MIT\r\npragma solidity ^0.8.0;\r\n\r\nimport \"./Escapable.sol\";\r\n\r\n/**\r\n * @title Vault\r\n * @author Ghadi Mhawej\r\n **/\r\n\r\ncontract Vault is Escapable {\r\n    /// @dev `Payment` is a public structure that describes the details of each payment\r\n    struct Payment {\r\n        string name; // What is the purpose of this payment\r\n        bytes32 ref; // Reference of the payment.\r\n        address spender; // Who is sending the funds\r\n        uint256 earliestPayTime; // The earliest a payment can be made (Unix Time)\r\n        bool canceled; // If True then the payment has been canceled\r\n        bool paid; // If True then the payment has been paid\r\n        address payable recipient; // Who is receiving the funds\r\n        uint256 amount; // The amount of wei sent in the payment\r\n        uint256 securityGuardDelay; // The seconds `securityGuard` can delay payment\r\n    }\r\n\r\n    Payment[] public authorizedPayments;\r\n\r\n    address public securityGuard;\r\n    uint256 public absoluteMinTimeLock;\r\n    uint256 public timeLock;\r\n    uint256 public maxSecurityGuardDelay;\r\n\r\n    /// @dev The whitelisted addresses allowed to set up && receive payments from this vault\r\n    mapping(address => bool) public allowedSpenders;\r\n\r\n    // @dev Events Definition\r\n    event PaymentAuthorized(\r\n        uint256 indexed idPayment,\r\n        address indexed recipient,\r\n        uint256 amount\r\n    );\r\n    event PaymentExecuted(\r\n        uint256 indexed idPayment,\r\n        address indexed recipient,\r\n        uint256 amount\r\n    );\r\n    event PaymentCanceled(uint256 indexed idPayment);\r\n    event EtherReceived(address indexed from, uint256 amount);\r\n    event SpenderAuthorization(address indexed spender, bool authorized);\r\n\r\n    // @dev The address assigned the role of `securityGuard` is the only addresses that can call a function with this modifier\r\n    modifier onlySecurityGuard() {\r\n        require(\r\n            _msgSender() == securityGuard,\r\n            \"Vault: the caller is not the securityGuard\"\r\n        );\r\n        _;\r\n    }\r\n\r\n    // @dev resticts access to only allowed spenders\r\n    modifier onlyAllowedSpender() {\r\n        require(\r\n            allowedSpenders[_msgSender()],\r\n            \"Vault: the caller is not an allowed spender\"\r\n        );\r\n        _;\r\n    }\r\n\r\n    /// @notice constructor\r\n    /// @param _escapeHatchCaller The address of a trusted account or contract to send the ether in this contract\r\n    /// @param _escapeHatchDestination The address of a safe location to send the ether held in this contract to\r\n    /// @param _absoluteMinTimeLock The minimum number of seconds `timelock` can be set to, if set to 0 the `owner` can remove the `timeLock` completely\r\n    /// @param _timeLock Initial number of seconds that payments are delayed after they are authorized (a security precaution)\r\n    /// @param _securityGuard Address that will be able to delay the payments beyond the initial timelock requirements; can be set to 0x0 to remove the `securityGuard` functionality\r\n    /// @param _maxSecurityGuardDelay The maximum number of seconds in total that `securityGuard` can delay a payment so that the owner can cancel the payment if needed\r\n    constructor(\r\n        address _escapeHatchCaller,\r\n        address payable _escapeHatchDestination,\r\n        uint256 _absoluteMinTimeLock,\r\n        uint256 _timeLock,\r\n        address _securityGuard,\r\n        uint256 _maxSecurityGuardDelay\r\n    ) Escapable(_escapeHatchCaller, _escapeHatchDestination) {\r\n        absoluteMinTimeLock = _absoluteMinTimeLock;\r\n        timeLock = _timeLock;\r\n        securityGuard = _securityGuard;\r\n        maxSecurityGuardDelay = _maxSecurityGuardDelay;\r\n    }\r\n\r\n    /// @notice Returns the total number of authorized payments in this contract\r\n    function numberOfAuthorizedPayments() public view returns (uint256) {\r\n        return authorizedPayments.length;\r\n    }\r\n\r\n    /// @notice The fall back function is called whenever ether is sent to this\r\n    ///  contract\r\n    receive() external payable {\r\n        emit EtherReceived(msg.sender, msg.value);\r\n    }\r\n\r\n    /// @notice `allowedSpenders` create a new `Payment`\r\n    /// @param _name Brief description of the payment that is authorized\r\n    /// @param _reference External reference of the payment\r\n    /// @param _recipient Destination of the payment\r\n    /// @param _amount Amount to be paid in wei\r\n    /// @param _paymentDelay Number of seconds the payment is to be delayed; if this value is below `timeLock` then the `timeLock` determines the delay\r\n    /// @return The Payment ID number for the new authorized payment\r\n    function authorizePayment(\r\n        string memory _name,\r\n        bytes32 _reference,\r\n        address payable _recipient,\r\n        uint256 _amount,\r\n        uint256 _paymentDelay\r\n    ) public onlyAllowedSpender returns (uint256) {\r\n        require(_paymentDelay < 10**18, \"Vault: paymentDelay overflow risk\");\r\n\r\n        uint256 idPayment = authorizedPayments.length;\r\n\r\n        Payment memory p = authorizedPayments[idPayment];\r\n        p.spender = _msgSender();\r\n\r\n        // Determines the earliest the recipient can receive payment (Unix time)\r\n        p.earliestPayTime = _paymentDelay >= timeLock\r\n            ? block.timestamp + _paymentDelay\r\n            : block.timestamp + timeLock;\r\n\r\n        p.recipient = _recipient;\r\n        p.amount = _amount;\r\n        p.name = _name;\r\n        p.ref = _reference;\r\n\r\n        authorizedPayments.push(p);\r\n\r\n        emit PaymentAuthorized(idPayment, p.recipient, p.amount);\r\n        return idPayment;\r\n    }\r\n\r\n    /// @notice  Called by recipient of a payment to receive the ether after the earliestPayTime` has passed\r\n    /// @param _idPayment The payment ID to be executed\r\n    function collectAuthorizedPayment(uint256 _idPayment) public nonReentrant {\r\n        require(\r\n            _idPayment <= authorizedPayments.length,\r\n            \"Vault: Payment doesn't exist\"\r\n        );\r\n\r\n        Payment memory p = authorizedPayments[_idPayment];\r\n\r\n        require(\r\n            _msgSender() == p.recipient,\r\n            \"Vault: caller is not the recipient\"\r\n        );\r\n        require(allowedSpenders[p.spender], \"Vault: Spender is not authorized\");\r\n        require(\r\n            block.timestamp > p.earliestPayTime,\r\n            \"Vault: Not allowed to spend yet\"\r\n        );\r\n        require(!(p.canceled), \"Vault: Payment was cancelled\");\r\n        require(!(p.paid), \"Vault: Payment already paid\");\r\n        require(address(this).balance > p.amount, \"Vault: Not enough balance\");\r\n\r\n        authorizedPayments[_idPayment].paid = true;\r\n\r\n        p.recipient.transfer(p.amount);\r\n\r\n        emit PaymentExecuted(_idPayment, p.recipient, p.amount);\r\n    }\r\n\r\n    /// @notice Called by Security Guard to delay a payment for a set number of seconds\r\n    /// @param _idPayment ID of the payment to be delayed\r\n    /// @param _delay The number of seconds to delay the payment\r\n    function delayPayment(uint256 _idPayment, uint256 _delay)\r\n        public\r\n        onlySecurityGuard\r\n    {\r\n        require(\r\n            _idPayment <= authorizedPayments.length,\r\n            \"Vault: Payment doesn't exist\"\r\n        );\r\n\r\n        require(_delay < 10**18, \"Vault: paymentDelay overflow risk\");\r\n\r\n        require(\r\n            !(authorizedPayments[_idPayment].canceled),\r\n            \"Vault: Payment was cancelled\"\r\n        );\r\n        require(\r\n            !(authorizedPayments[_idPayment].paid),\r\n            \"Vault: Payment already paid\"\r\n        );\r\n        require(\r\n            authorizedPayments[_idPayment].securityGuardDelay + _delay <\r\n                maxSecurityGuardDelay,\r\n            \"Vault: delay time too big\"\r\n        );\r\n\r\n        authorizedPayments[_idPayment].securityGuardDelay += _delay;\r\n        authorizedPayments[_idPayment].earliestPayTime += _delay;\r\n    }\r\n\r\n    /// @notice Called by owner to cancel a payment\r\n    /// @param _idPayment ID of the payment to be canceled.\r\n    function cancelPayment(uint256 _idPayment) public onlyOwner {\r\n        require(\r\n            _idPayment <= authorizedPayments.length,\r\n            \"Vault: Payment doesn't exist\"\r\n        );\r\n\r\n        require(\r\n            !(authorizedPayments[_idPayment].canceled),\r\n            \"Vault: Payment was cancelled\"\r\n        );\r\n        require(\r\n            !(authorizedPayments[_idPayment].paid),\r\n            \"Vault: Payment already paid\"\r\n        );\r\n        authorizedPayments[_idPayment].canceled = true;\r\n        emit PaymentCanceled(_idPayment);\r\n    }\r\n\r\n    /// @notice Called by owner to add an address to the allowedSpenders whitelist\r\n    /// @param _spender The address of the contract being authorized\r\n    function authorizeSpender(address _spender) public onlyOwner {\r\n        allowedSpenders[_spender] = true;\r\n        emit SpenderAuthorization(_spender, true);\r\n    }\r\n\r\n    /// @notice Called by owner to remove an address to the allowedSpenders whitelist\r\n    /// @param _spender The address of the contract being removed\r\n    function removeSpender(address _spender) public onlyOwner {\r\n        allowedSpenders[_spender] = false;\r\n        emit SpenderAuthorization(_spender, false);\r\n    }\r\n\r\n    /// @notice Called by owner to set new address of security guard\r\n    /// @param _newSecurityGuard Address of the new security guard\r\n    function setSecurityGuard(address _newSecurityGuard) public onlyOwner {\r\n        securityGuard = _newSecurityGuard;\r\n    }\r\n\r\n    /// @notice owner can change timeLock; the new `timeLock` cannot be  lower than `absoluteMinTimeLock`\r\n    /// @param _newTimeLock Sets the new minimum default `timeLock` in seconds; pending payments maintain their `earliestPayTime`\r\n    function setTimelock(uint256 _newTimeLock) public onlyOwner {\r\n        require(\r\n            _newTimeLock > absoluteMinTimeLock,\r\n            \"Vault: _newTimeLock should be higher than absoluteMinTimeLock\"\r\n        );\r\n        timeLock = _newTimeLock;\r\n    }\r\n\r\n    /// @notice owner can change the maximum number of seconds`securityGuard` can delay a payment\r\n    /// @param _maxSecurityGuardDelay The new maximum delay in seconds\r\n    function setMaxSecurityGuardDelay(uint256 _maxSecurityGuardDelay)\r\n        public\r\n        onlyOwner\r\n    {\r\n        maxSecurityGuardDelay = _maxSecurityGuardDelay;\r\n    }\r\n}\r\n",
  "sourcePath": "C:\\Users\\Ghadi\\Desktop\\Portfolio\\Vault\\contracts\\Vault.sol",
  "compiler": {
    "name": "solc",
    "version": "0.8.16+commit.07a7930e.Emscripten.clang"
  },
  "schemaVersion": "3.4.4",
  "updatedAt": "2022-09-03T14:32:44.242Z",
  "networkType": "ethereum",
  "devdoc": {
    "author": "Ghadi Mhawej*",
    "kind": "dev",
    "methods": {
      "authorizePayment(string,bytes32,address,uint256,uint256)": {
        "params": {
          "_amount": "Amount to be paid in wei",
          "_name": "Brief description of the payment that is authorized",
          "_paymentDelay": "Number of seconds the payment is to be delayed; if this value is below `timeLock` then the `timeLock` determines the delay",
          "_recipient": "Destination of the payment",
          "_reference": "External reference of the payment"
        },
        "returns": {
          "_0": "The Payment ID number for the new authorized payment"
        }
      },
      "authorizeSpender(address)": {
        "params": {
          "_spender": "The address of the contract being authorized"
        }
      },
      "cancelPayment(uint256)": {
        "params": {
          "_idPayment": "ID of the payment to be canceled."
        }
      },
      "changeEscapeCaller(address)": {
        "params": {
          "_newEscapeHatchCaller": "New address to be assigned to escapeHatchCaller"
        }
      },
      "collectAuthorizedPayment(uint256)": {
        "params": {
          "_idPayment": "The payment ID to be executed"
        }
      },
      "constructor": {
        "params": {
          "_absoluteMinTimeLock": "The minimum number of seconds `timelock` can be set to, if set to 0 the `owner` can remove the `timeLock` completely",
          "_escapeHatchCaller": "The address of a trusted account or contract to send the ether in this contract",
          "_escapeHatchDestination": "The address of a safe location to send the ether held in this contract to",
          "_maxSecurityGuardDelay": "The maximum number of seconds in total that `securityGuard` can delay a payment so that the owner can cancel the payment if needed",
          "_securityGuard": "Address that will be able to delay the payments beyond the initial timelock requirements; can be set to 0x0 to remove the `securityGuard` functionality",
          "_timeLock": "Initial number of seconds that payments are delayed after they are authorized (a security precaution)"
        }
      },
      "delayPayment(uint256,uint256)": {
        "params": {
          "_delay": "The number of seconds to delay the payment",
          "_idPayment": "ID of the payment to be delayed"
        }
      },
      "owner()": {
        "details": "Returns the address of the current owner."
      },
      "removeSpender(address)": {
        "params": {
          "_spender": "The address of the contract being removed"
        }
      },
      "renounceOwnership()": {
        "details": "Leaves the contract without owner. It will not be possible to call `onlyOwner` functions anymore. Can only be called by the current owner. NOTE: Renouncing ownership will leave the contract without an owner, thereby removing any functionality that is only available to the owner."
      },
      "setMaxSecurityGuardDelay(uint256)": {
        "params": {
          "_maxSecurityGuardDelay": "The new maximum delay in seconds"
        }
      },
      "setSecurityGuard(address)": {
        "params": {
          "_newSecurityGuard": "Address of the new security guard"
        }
      },
      "setTimelock(uint256)": {
        "params": {
          "_newTimeLock": "Sets the new minimum default `timeLock` in seconds; pending payments maintain their `earliestPayTime`"
        }
      },
      "transferOwnership(address)": {
        "details": "Transfers ownership of the contract to a new account (`newOwner`). Can only be called by the current owner."
      }
    },
    "stateVariables": {
      "allowedSpenders": {
        "details": "The whitelisted addresses allowed to set up && receive payments from this vault"
      }
    },
    "title": "Vault",
    "version": 1
  },
  "userdoc": {
    "events": {
      "EscapeHatchCalled(uint256)": {
        "notice": "EscapeHatch event definition"
      }
    },
    "kind": "user",
    "methods": {
      "authorizePayment(string,bytes32,address,uint256,uint256)": {
        "notice": "`allowedSpenders` create a new `Payment`"
      },
      "authorizeSpender(address)": {
        "notice": "Called by owner to add an address to the allowedSpenders whitelist"
      },
      "cancelPayment(uint256)": {
        "notice": "Called by owner to cancel a payment"
      },
      "changeEscapeCaller(address)": {
        "notice": "Changes the address assigned to call `escapeHatch()`"
      },
      "collectAuthorizedPayment(uint256)": {
        "notice": "Called by recipient of a payment to receive the ether after the earliestPayTime` has passed"
      },
      "constructor": {
        "notice": "constructor"
      },
      "delayPayment(uint256,uint256)": {
        "notice": "Called by Security Guard to delay a payment for a set number of seconds"
      },
      "escapeHatch()": {
        "notice": "Sends all of the eth contained in the contract to the escapeHatchDestinationshould only be called as last resort"
      },
      "numberOfAuthorizedPayments()": {
        "notice": "Returns the total number of authorized payments in this contract"
      },
      "removeSpender(address)": {
        "notice": "Called by owner to remove an address to the allowedSpenders whitelist"
      },
      "setMaxSecurityGuardDelay(uint256)": {
        "notice": "owner can change the maximum number of seconds`securityGuard` can delay a payment"
      },
      "setSecurityGuard(address)": {
        "notice": "Called by owner to set new address of security guard"
      },
      "setTimelock(uint256)": {
        "notice": "owner can change timeLock; the new `timeLock` cannot be  lower than `absoluteMinTimeLock`"
      }
    },
    "version": 1
  }
}